:1000000005308A003F2D0000FF00030E8301A10090
:100010000A08A0008A010408A2007708A300780853
:10002000A4007908A5007A08A600831383120B1E8A
:100030001B288B1832288C308400001C21280C18B7
:100040003528220884002308F7002408F800250832
:10005000F9002608FA0020088A00210E8300FF0E0E
:100060007F0E09008A110A1238288A110A125928AB
:100070000B138B138B1B39280F08FA000E08F7009F
:100080000F087A02031D3C287708A8077A0803188E
:100090007A0FA907003003180130AA0700300318AF
:1000A0000130AB072C14C0308B048B108A110A125C
:1000B00021280B138B138B1B5A28FF30A807031C16
:1000C000A907003003180130AA07003003180130D7
:1000D000AB07C0308B040C108A110A122128C422ED
:1000E000CD27A0295223B01A0000C2306E266937EE
:1000F000E825E9326E17563700004B346F3767102A
:10010000C337202B613AA02161370001C43473103A
:100110003A10A5192E196610C336201000004E188B
:10012000932808129428081603104E0C0139031D59
:100130009B2888129C2888164E0CF700F70C3F303D
:10014000F70577080139031DA7280813A828081701
:100150004E0CF700F70CF70C1F30F7057708013944
:10016000031DB4288813B528881708005030840070
:10017000831300080319CA280730F800F701F70BAA
:10018000BF28F80BBE28C730F700F70BC5280000C2
:10019000800BBC28080009150530F700F70BCE28A6
:1001A000D12809116330F700F70BD428D7280800AD
:1001B0004C0ECD000F30CD054D08CE008F20CB204A
:1001C0004C08CE008F20CB2008008316081288121E
:1001D000081388130911091089108312CE018F208A
:1001E0001430D000B620091089100330CE008F20C3
:1001F000CB200530D000B620CB20C730F700F70B5E
:10020000FF280229CB200230CE008F20CB202830BF
:10021000CC00D8200C30CC00D8200630CC00D82020
:100220000130CC00D8208A110A125C2D2D088400E0
:1002300083132E18831755088000840A8001AD0AA5
:100240000319AE0A0800831603178C170C1400005C
:10025000000083120C087F39031967290313C800B3
:1002600003170D080313C90003170F080313CA006F
:100270004808D5001621490803178D0003134A08C2
:1002800003178F0083168C170C14000000008312D4
:100290000C0D0E0D7F39031967290313C8000317CE
:1002A0000D080313C90003170F080313CA004808F9
:1002B000D5001621490803178D0003134A080317B8
:1002C0008F008D0A03198F0A0313232903170313C1
:1002D00008004908FA004808840083137A18831735
:1002E0008008031987294908FA0048088400831305
:1002F0007A1883170008CA004A08CB0009144B0873
:10030000CC00D8200910C80A0319C90A69290800B5
:100310000130CC00D8200A30D000B6208A110A1251
:10032000752DC908031D982980304807CA009B29EC
:10033000C0304807CA000130D000B6204A08CC00BF
:10034000D8200A30D000B62008008318AA295D30D2
:1003500084008313F701F801F901FA01DD01DE01E0
:10036000DF01E0015C085B045A0459040319E82921
:100370002030E1000310D50DD60DD70DD80DDD0DC1
:10038000DE0DDF0DE00D5C086002031DD1295B0866
:100390005F02031DD1295A085E02031DD1295908A5
:1003A0005D02031CE2295908DD025A08031C5A0F9A
:1003B000DE025B08031C5B0FDF025C08031C5C0FA2
:1003C000E0020314F70DF80DF90DFA0DE10BBA294F
:1003D0005D088000840A5E088000840A5F0880004F
:1003E000840A600880000800CB01CA01C901C80165
:1003F000CF01CE01CD01CC012C180D2A86140F306F
:10040000D000B6208610061C032A8F018E01C03052
:100410008B043230D000B620FC290B138B138B1BBE
:100420000E2AAB08031D262A2A08013C0318312A8C
:10043000FF3A031D262A2908BE3C0318312AFF3A39
:10044000031D262A2808203C0318312AAB01AA01E3
:10045000A901A8012C10F701F801F901FA01572BA5
:10046000572B83102B08D8002A08D7002908D6005C
:100470002808D500DC01DB01DA010630D900A5210E
:100480007A08D3007908D2007808D1007708D00024
:10049000B630F700FA01F901F8015008510452048E
:1004A0005304031D552AF701622A0310F81B612A21
:1004B000D00DD10DD20DD30DFA0DF90DF80DF70BAE
:1004C000552AF8137A08CB007908CA007808C900C1
:1004D0007708C8004B08D3004A08D2004908D10069
:1004E0004808D000D701D6016830D5008430D40048
:1004F000500803193D2BDC00540803193D2BDC0286
:10050000031C872A7F30DC0703183D2B8D2A81309E
:10051000DC02031C3D2B03193D2B5C08F700F8019E
:10052000F901FA01DB015108DA00DA175208D900A3
:100530005308D8001930DC005708D8020318B02A35
:100540000130D9020318B02ADA020318B02ADB02FC
:100550000318B02ADB0ADA0AD90A5708D807E22AB0
:100560005608D9020318CB2A0130DA020318CB2A25
:10057000DB020318CB2ADB0ADA0A5608D907570828
:10058000D807031CE22AD90A031DE22ADA0A031D4E
:10059000E22ADB0AE22A55088038DA020318E12A47
:1005A0000130DB020318E12ADB0A55088038DA073C
:1005B0005608D907031CBF2ADA0A031DBF2ADB0A23
:1005C000BF2A7A14DC0BE52AF02A0310D80DD90DC6
:1005D000DA0DDB0D0310FA0DF90DF80DDD0D9C2A77
:1005E0005D1CF82A0310F80CF90CFA0CDD0CFB2A40
:1005F000F70303193D2BDD1B242B0310D80DD90D58
:10060000DA0DDB0D5708D8020318102B0130D90280
:100610000318102BDA020318102BDB02031C332BF8
:100620005608D90203181B2B0130DA0203181B2BC2
:10063000DB02031C332B55088038DA020318242B05
:100640000130DB02031C332BFA0A031D332BF90A9A
:10065000031D332BF80A031D332BF70A03193D2B17
:10066000F80CF90CFA0C5108DC005508DC06DC1F0C
:100670003B2BF817412BF813412BF701F801F90137
:10068000FA017A08CF007908CE007808CD00770803
:10069000CC00AB01AA01A901A8012C104C08F7005D
:1006A0004D08F8004E08F9004F08FA00572B8A1140
:1006B0000A12962D4908D0004D08D006D01F652B90
:1006C00003110310C91B0314982B4908D0004C08D0
:1006D000D1004808D1020319732BD01F982B0308AF
:1006E000013A8300982B4D08D1004908D102031923
:1006F0007F2BD01F982B0308013A8300982B4E08BC
:10070000D1004A08D10203198B2BD01F982B030864
:10071000013A8300982B4F08D1004B08D1020319EE
:10072000972BD01F982B0308013A8300982B0310B6
:100730008A110A12AB2D831603178C170C140000B4
:1007400000000318CA2B83120C087F390313C90059
:1007500003170D080313CA0003170F080313CB0078
:100760004908D50016214A0803178D0003134B08CA
:1007700003178F0083168C170C14000000008312DF
:100780000313C80BC42BC72B83160317CA2BE92BE3
:100790008316031783120C0D0E0D7F390313C90046
:1007A00003170D080313CA0003170F080313CB0028
:1007B0004908D50016214A0803178D0003134B087A
:1007C00003178F008D0A03198F0A03100313C80B38
:1007D0009B2B08000408CD004C08CF0003197C2C8B
:1007E0004B08D8004A08D7004908D6004808D50069
:1007F000DC01DB012030DA008230D9005508031912
:100800006E2CDD00590803196E2CDD0703180F2C20
:100810007F30DD02031C6E2C03196E2C132C8130EB
:10082000DD0703186E2C5D08F700F801F901FA01E5
:100830005608E100E1175708E0005808DF001830BB
:10084000DD00DE015F1C3C2C5C08FA07031C2E2C2B
:10085000F90A031D2E2CF80A0319DE175B08F907A5
:10086000031C352CF80A0319DE175A08D700D717CE
:100870005708F8070318DE17DE0DF80CF90CFA0C10
:10088000E10CE00CDF0C0310DD0B212C0130F7072D
:1008900003186E2CF81B532CE10DFA0DF90DF80D11
:1008A000F70303196E2CE11F642CFA0A031D642C54
:1008B000F90A031D642CF80A031D642CF80CF90CCA
:1008C000FA0CF70A03196E2C5608DE005A08DE06E9
:1008D000DE1F6C2CF817722CF813722CF701F8013C
:1008E000F901FA017A08CB007908CA007808C90032
:1008F0007708C800CF0BF02B4B08D8004A08D70068
:100900004908D6004808D5005508B63CD500FA017C
:100910005608D900D6170310D60CD70CD80CFA0CF1
:10092000F90CF80CF70CD50B8B2CD91FA22CF7095E
:10093000F809F909FA09F70A0319F80A0319F90A73
:100940000319FA0A7A08CB007908CA007808C900A6
:100950007708C800CB1FB92CCD03CD16C809C9092B
:10096000CA09CB09C80A0319C90A0319CA0A031913
:10097000CB0A3B30D4009A30D300CA30D200D10128
:100980000A30CF004C080319CD0A83144830840084
:1009900083134B08D8004A08D7004908D6004808F6
:1009A000D5005408DC005308DB005208DA00510877
:1009B000D900A5217808F708031DF12C4C0A4F0235
:1009C0000319F12C4D080319F32C0F394F020319A9
:1009D000EB2C0318232DCD1B232D4D1BF32C203086
:1009E0001F2D2030CD05CD1E012DCD124C08031D2D
:1009F000CD037708CD002D30D50016214D08F70026
:100A0000CD014C084F02031D0F2D7708CD002E306D
:100A1000D50016214D08F7002030CD0500303030CC
:100A2000CD1E1F2DCD124C08031DCD037708CD0020
:100A30002D30D50016214D08F700CD013030F707D5
:100A40007708D500162183105408D8005308D70022
:100A50005208D6005108D500DC01DB01DA010A306A
:100A6000D900A5217A08D4007908D3007808D200EB
:100A70007708D100CF0BC52C8A110A12E52D84010D
:100A800083131F308305FF30A700AB01AA01A90122
:100A9000A8012C10AE01AD0183161F149F141F1561
:100AA0009F1107309C008312C30183160614861021
:100AB000061186118312E528AE012F30AD006F308C
:100AC00003178D0000308F00031323210A30D0005C
:100AD000B620C9012F30C80069210430C800FA309F
:100AE000D000B620C80B6F2D8829AE012F30AD0085
:100AF000753003178D0000308F0003132321013060
:100B0000C800C9019121C9012F30C800692183168D
:100B10008113011385308312900083160C14831205
:100B20000B160B138B138B1B922DF4297A08C7001D
:100B30007908C6007808C5007708C4004708CB00CC
:100B40004608CA004508C9004408C800CF01CE01C4
:100B5000CD01CC015A2B031DC72DC8010130C9009E
:100B60009121AE012F30AD007D3003178D00003094
:100B70008F0003132321C9012F30C80069210230DF
:100B8000C800FA30D000B620C80BC12DF32DC80123
:100B90000130C9009121AE012F30AD00863003171E
:100BA0008D0000308F00031006300313C8009B2314
:100BB000023084004708CB004608CA004508C90037
:100BC0004408C8000230CC00EA2B8B3003178D009C
:100BD00000308F00031405300313C8009B23C901A4
:0A0BE0002F30C8006921952D630035
:02400E003A3F37
:00000001FF
;PIC16F877A
;CRC=B2C9  CREATED="15-Oct-12 17:32"
